:020000021000EC
:10F000000C9446F80C9465F80C9465F80C9465F82B
:10F010000C9465F80C9465F80C9465F80C9465F8FC
:10F020000C9465F80C9465F80C9465F80C9465F8EC
:10F030000C9465F80C9465F80C9465F80C9465F8DC
:10F040000C9465F80C9465F80C9465F80C9465F8CC
:10F050000C9465F80C9465F80C9465F80C9465F8BC
:10F060000C9465F80C9465F80C9465F80C9465F8AC
:10F070000C9465F80C9465F80C9465F80C9465F89C
:10F080000C9465F80C9465F80C9465F811241FBE77
:10F09000CFEFD0E4DEBFCDBF11E0A0E0B1E0E4E50A
:10F0A000FEEF01E00BBF02C007900D92AE30B1073A
:10F0B000D9F722E0AEE0B1E001C01D92AB33B20758
:10F0C000E1F70E9427F90C9428FF0C9400F8559A58
:10F0D000569A08955D9A08955D9808955E9A0895E8
:10F0E0005E9808955E9B0C946EF80C9470F85D9B8E
:10F0F0000C946AF80C946CF8509A259A279A2E9AD8
:10F10000089588EC31973197319700008A95D1F7AF
:10F11000089502D0589801C0589A8FEF98E087FD63
:10F120002D9A87FF2D98880F1E9983952F9A2F98D7
:10F130009A95A9F70895FB018BBF83E08093570050
:10F14000E8958091570080FDFCCF81E180935700C6
:10F15000E89508950F921F928BBFFB01DA0190E8AA
:10F160000D901D9081E080935700E89532969A9516
:10F17000B9F7FB0185E080935700E895809157002F
:10F1800080FDFCCF81E180935700E8951F900F90A0
:10F190000895CF92DF92EF92FF92CF93DF9300D04A
:10F1A000CDB7DEB7C12CD12C760140E051E06FEF36
:10F1B00070E08BE391E00E9421FFAE014F5F5F4F53
:10F1C00060E071E08BE391E00E94C5FC2BE331E04D
:10F1D000D701C601ABBFFC014791F90151919F01D5
:10F1E00045131BC00196A11DB11DF2E02B333F0753
:10F1F00089F74FEFD41AE40AF40AC11480EFD80655
:10F2000081E0E806F10489F60F900F90DF91CF912D
:10F21000FF90EF90DF90CF900895C701B6010E9454
:10F220009BF84BE351E0C701B6010E94AAF8E1CF79
:10F2300081E191E00E945CFA811108C080E091E0D8
:10F240000E945FFB811102C00E94C9F80895C0E0CE
:10F25000D0E00E9418F9FE0185919491019611F079
:10F26000FE010995FAE220E53EEF80E0F1502040F2
:10F2700030408040D9F70000ECCF0F931F939B01E3
:10F28000AC01E0910E01F0910F01225031094109CA
:10F29000510986819781A085B1850297A109B1099D
:10F2A000281739074A075B0768F4A281B0E00E947B
:10F2B000D0FE0289138924893589600F711F821F4E
:10F2C000931F03C060E070E0CB011F910F91089580
:10F2D0000F931F93CF93DF93EC01E0910E01F09118
:10F2E0000F01198218826C817D818E819F8161302E
:10F2F00071058105910561F10681178120853185B0
:10F30000601771078207930718F56115710581056C
:10F31000910539F42081233021F466857785808931
:10F320009189688779878A879B876115710581052F
:10F33000910519F00E943DF904C0668577858089A2
:10F3400091896C877D878E879F8780E090E002C0DF
:10F3500081E090E0DF91CF911F910F910895A4E09B
:10F36000B0E0E5EBF9EF0C94E9FEE0910E01F091CD
:10F370000F01623071058105910508F453C00681C3
:10F38000178120853185601771078207930708F080
:10F3900049C02081223019F02330F1F043C09B0195
:10F3A0003327220F331F472F582F692F7727828546
:10F3B0009385A485B585480F591F6A1F7B1F02E0FE
:10F3C00010E0CE0101960E945FFE892B59F56981FC
:10F3D0007A8180E090E02AC09B012F773327220FAB
:10F3E000331F220F331FAB01BC01A7E07695679551
:10F3F00057954795AA95D1F782859385A485B585BC
:10F40000480F591F6A1F7B1F04E010E0CE010196D0
:10F410000E945FFE892B31F469817A818B819C8106
:10F420009F7004C061E070E080E090E02496E4E02A
:10F430000C9405FFA0E0B0E0E0E2FAEF0C94E5FEEA
:10F44000EC016A017B0102E010E02EEF31E00E9446
:10F450005FFE892B39F58881998185359A4A21F596
:10F4600026E330E0B701A601CE010E945FFE892BA2
:10F4700029F48881998186349144C1F002E010E03A
:10F4800022E530E0B701A601CE010E945FFE892B84
:10F4900039F481E0288139812634314441F406C0B1
:10F4A00081E005C083E003C082E001C080E0CDB709
:10F4B000DEB7E8E00C9401FFA8E2B0E0E2E6FAEF84
:10F4C0000C94DDFE5C0110920F0110920E010E945F
:10F4D000C0FD80FDB3C040E050E0BA01CE0101960E
:10F4E0000E941AFA813009F500E110E02EEB31E0BC
:10F4F00040E050E0BA01CE0101960E945FFE892BE8
:10F5000019F081E090E0D7C08D81811103C086E0C1
:10F5100090E0D1C049845A846B847C84B301A201F9
:10F52000CE0101960E941AFA03C0412C512C3201DF
:10F53000833039F38111EBCF04E210E02DE030E0AD
:10F54000B301A201CE0101960E945FFE892BC9F68C
:10F550002A853B8540E050E02115310541055105E4
:10F5600021F4288D398D4A8D5B8DAC81B0E00E94ED
:10F57000D0FE6B017C018A819B81AC0160E070E070
:10F58000440E551E661E771ED5011A964D925D9249
:10F590006D927C921D97E9811296EC9312972D81C2
:10F5A0003E8115963C932E9314978F819885A0E009
:10F5B000B0E00097A105B10521F48C899D89AE8941
:10F5C000BF89490104E0969487940A95E1F7840184
:10F5D00020E030E00DA31EA32FA338A78C019D01CE
:10F5E000041B150B260B370BC901B8016C197D09DB
:10F5F0008E099F090DA11EA12FA138A5601B710BBB
:10F60000820B930B2E2F30E040E050E00E94AEFEC4
:10F61000DA01C9010296A11DB11DF5018683978308
:10F62000A087B187BA01A901465F5F4061097109EE
:10F630004F3F5F4E61057105B8F103C082E090E075
:10F640003AC0873F9F4FA105B10508F460CF83E022
:10F65000D5018C93833029F488A199A1AAA1BBA1DB
:10F6600006C0D701C601840D951DA61DB71DF50165
:10F6700086879787A08BB18B0DA11EA12FA138A5DE
:10F68000400E511E621E731E4C0C5D1C6E1C7F1CB6
:10F69000428A538A648A758A1182B0920F01A092BD
:10F6A0000E0180E090E007C0873F9F4FA105B105A4
:10F6B00070F682E0CDCFA896E0E10C94F9FEACE3C1
:10F6C000B0E0E5E6FBEF0C94E0FEC0900E01D090B8
:10F6D0000F01C114D10409F423C1D60111961C9263
:10F6E0009E012F5C3F4F3CA32BA39C017901F901A4
:10F6F00080812F5F3F4F8032C9F38F3209F4790147
:10F700001DA21EA21FA218A6D7018C91803248F418
:10F71000CE0181960E9468F91982009709F4CBC046
:10F7200030C1A0E27A2E4E01BCE08B0E911CEBA101
:10F73000FCA1DF01CF010B96A817B90711F07D924C
:10F74000FBCF80E090E028E031E0390FD701A90F2E
:10F75000B11D9C91913270F09F3261F09E3209F49C
:10F76000E4C0821738F4DF01A80FB11D9C938F5FAE
:10F77000932FEACFE30EF11C81E0913208F080E094
:10F780008387CE0181960E9468F9009709F0F9C03D
:10F7900029A13AA12F703327F5E0220F331FFA95E4
:10F7A000E1F74DA55EA56FA578A900E210E0CE01B6
:10F7B00001960E945FFE892B09F0BDC089818823D4
:10F7C00009F4DDC02C8523FD0FC06BA17CA1FE01D7
:10F7D0003196CB01E815F90509F468C04191DC01C7
:10F7E0003D91CD014317B1F3A0900E01B0900F01F0
:10F7F00009A11AA10F5F1F4F09F4C1C08DA59EA5D5
:10F80000AFA5B8A90097A105B10509F4B8C0980142
:10F810002F703327232B09F046C00196A11DB11D7F
:10F820008DA79EA7AFA7B8AB69A57AA58BA59CA508
:10F83000611571058105910541F4F501848195817A
:10F840000817190708F09BC02EC0D50112962C91FD
:10F85000422F50E0415051099801E4E03695279538
:10F86000EA95E1F742235323452BE9F40E94AFF9CF
:10F87000623071058105910508F45DC0F5012681AE
:10F88000378140855185621773078407950708F013
:10F8900076C069A77AA78BA79CA70E943DF96DA7A0
:10F8A0007EA78FA798AB1AA309A372CFFB0183850C
:10F8B000882309F443C089818823A9F18C8584FDBC
:10F8C00032C0E0910E01F0910F018081833041F44C
:10F8D0004D895E8960E070E0BA015527442703C076
:10F8E00040E050E0BA018B8D9C8DA0E0B0E0842B0D
:10F8F000952BA62BB72BF601868F978FA0A3B1A3CC
:10F900008D8D9E8DAF8DB8A1828F938FA48FB58F73
:10F91000168A178A108E118E81E0818380E001C0E3
:10F9200085E090E02EC083E0FCCF283009F022CFA4
:10F9300088E02BE01DCF81E090E023C024FF1FC0B2
:10F94000E0910E01F0910F018081833041F44D89E7
:10F950005E8960E070E0BA015527442703C040E0AB
:10F9600050E0BA018B8D9C8DA0E0B0E0842B952BEC
:10F97000A62BB72B8DA39EA3AFA3B8A7D8CE83E0A9
:10F9800090E0EC96EDE00C94FCFEA0E0B0E0EBEC37
:10F99000FCEF0C94DDFE4C017B015A01C0910E017D
:10F9A000D0910F01FA0111821082209709F4A1C0B1
:10F9B000898180FFA1C08A8D9B8DAC8DBD8D4E89C4
:10F9C0005F89688D798D841B950BA60BB70BA701FA
:10F9D00060E070E084179507A607B70708F47C017C
:10F9E0003401412C32E0532EE114F10409F47EC0BD
:10F9F0008E899F89A88DB98DAC01BD015170662794
:10FA00007727452B462B472BD1F5DA80DA94AC01CA
:10FA1000BD0129E076956795579547952A95D1F7C9
:10FA2000D422C1F4892B8A2B8B2B29F46E8D7F8DE8
:10FA300088A199A106C06AA17BA18CA19DA10E9469
:10FA4000AFF96230710581059105A0F16AA37BA32E
:10FA50008CA39DA36AA17BA18CA19DA10E943DF9CD
:10FA6000611571058105910529F1DC01CB018D0D31
:10FA7000911DA11DB11D8EA39FA3A8A7B9A72E8973
:10FA80003F893170C201821B930B67018E159F0560
:10FA900008F46C014EA15FA168A579A581149104B9
:10FAA00019F480E090E001C0C30186010E945FFE6E
:10FAB000892B21F0198281E090E020C08E899F89F6
:10FAC000A88DB98D8C0D9D1DA11DB11D8E8B9F8B99
:10FAD000A88FB98F6C0C7D1CEC18FD08F501808196
:10FAE00091818C0D9D1D918380837ECF80E090E07D
:10FAF00005C085E090E002C084E090E0CDB7DEB7BD
:10FB0000E0E10C94F9FEFF920F931F93CF93DF93E4
:10FB1000C82FD42F152F062FF72E87FF09C040E0DE
:10FB200050E0BA0187E70E9483FD823020F5CF774D
:10FB30000E9489F88C2F0E948EF88F2D0E948EF8DB
:10FB4000802F0E948EF8812F0E948EF88D2F0E94A8
:10FB50008EF8C03421F0C83421F081E003C085E97B
:10FB600001C087E80E948EF8CAE00E948DF887FFE6
:10FB700002C0C150D1F7CDB7DEB7E5E00C9404FF69
:10FB8000A4E0B0E0E6ECFDEF0C94E7FE0E947CF808
:10FB900014E60E9481F81150E1F71AE00E948CF8F7
:10FBA0001150E1F740E050E0BA0180E40E9483FD8B
:10FBB000813009F05AC04AEA51E060E070E088E420
:10FBC0000E9483FD813041F57E0185E0E80EF11C45
:10FBD0008E010F5F1F4F0E948DF8F80181938F01F6
:10FBE000EE15FF05C1F78B81813009F03EC08C8195
:10FBF0008A3A09F03AC000E117E240E050E060E0E4
:10FC000070E489EE0E9483FD8823C9F10E9481F887
:10FC10000150110991F729C040E050E0BA0189EE86
:10FC20000E9483FD823028F422E0F22E39EEE32E8A
:10FC300004C0FF24F39491E4E92E00E117E240E0D0
:10FC400050E0BA018E2D0E9483FD882331F00E947E
:10FC500081F80150110999F708C040E052E060E0D6
:10FC600070E080E50E9483FD8111F12CF09210017B
:10FC70000E948CF881E0FF20F1F080E01CC040E0A1
:10FC800050E0BA018AE70E9483FD8111EECF8E0118
:10FC90000F5F1F4F0E948DF8F80181938F01EE15C1
:10FCA000FF05C1F7898186FF03C04CE0F42EDECF4B
:10FCB00084E0F82EDBCF2496E6E00C9403FFA0E06E
:10FCC000B0E0E5E6FEEF0C94E5FED82EC92E7901F2
:10FCD0008091100183FD07C0E9E0440F551F661FA6
:10FCE000771FEA95D1F781E50E9483FD882319F0FB
:10FCF000C1E0D0E02BC0C0E4DCE90E948DF88F3F6A
:10FD000019F42197D1F7F4CF8E3F91F7C2E0D2E0FA
:10FD1000C01BD10BCE19DF09E114F10419F4ED2C4D
:10FD2000FC2C06C00E948DF881E0E81AF108F4CF9F
:10FD30000E948DF8F70181937F0101501109C1F7ED
:10FD40000E948DF82197E1F7C0E0D0E00E948CF886
:10FD5000CE01CDB7DEB7E8E00C9401FFA1E21A2E88
:10FD6000AA1BBB1BFD010DC0AA1FBB1FEE1FFF1F5F
:10FD7000A217B307E407F50720F0A21BB30BE40BAF
:10FD8000F50B661F771F881F991F1A9469F76095F6
:10FD90007095809590959B01AC01BD01CF010895B0
:10FDA0000E9412FFA59F900DB49F900DA49F800DFF
:10FDB000911D112408952F923F924F925F926F925E
:10FDC0007F928F929F92AF92BF92CF92DF92EF92EB
:10FDD000FF920F931F93CF93DF93CDB7DEB7CA1B6C
:10FDE000DB0B0FB6F894DEBF0FBECDBF09942A8897
:10FDF000398848885F846E847D848C849B84AA843F
:10FE0000B984C884DF80EE80FD800C811B81AA81CB
:10FE1000B981CE0FD11D0FB6F894DEBF0FBECDBF96
:10FE2000ED010895A29FB001B39FC001A39F700D83
:10FE3000811D1124911DB29F700D811D1124911DF2
:10FE40000895DC0101C06D9341505040E0F70895E2
:04FE5000F894FFCF54
:0EFE54004649524D574152452E42494E00003C
:040000031000F000F9
:00000001FF
