:107000000C9434380C9451380C9451380C945138F9
:107010000C9451380C9451380C9451380C945138CC
:107020000C9451380C9451380C9451380C945138BC
:107030000C9451380C9451380C9451380C945138AC
:107040000C9451380C9451380C9451380C9451389C
:107050000C9451380C9451380C9451380C9451388C
:107060000C9451380C94513811241FBECFEFD8E046
:10707000DEBFCDBF11E0A0E0B1E0E2E2FEE702C07A
:1070800005900D92AE30B107D9F721E0AEE0B1E046
:1070900001C01D92AB3BB207E1F70E940E390C9480
:1070A0000F3F0C940038559A569A08955D9A0895AA
:1070B0005D9808955E9A08955E9808955E9B0C947D
:1070C0005A380C945C385D9B0C9456380C945838A4
:1070D000229A239A259A2C9A089588EC3197319711
:1070E000319700008A95D1F7089502D02A9801C0FF
:1070F0002A9A8FEF98E087FD2B9A87FF2B98880FAD
:107100001C9983952D9A2D989A95A9F70895FB01BE
:1071100083E080935700E8958091570080FDFCCF75
:1071200081E180935700E89508950F921F92FB012B
:10713000DA0190E40D901D9081E080935700E8956E
:1071400032969A95B9F7FB0185E080935700E89550
:107150008091570080FDFCCF81E180935700E89536
:107160001F900F900895CF92DF92EF92FF92CF93EE
:10717000DF9300D0CDB7DEB7C12CD12C760140E82B
:1071800050E06FEF70E08BE391E00E94083FAE01AA
:107190004F5F5F4F60E870E08BE391E00E94AC3C92
:1071A000ABE3B1E0C6018B539140FC01EA0FFB1F3A
:1071B000E4912D91E21318C021E0AB3BB207A9F78F
:1071C00080E8C80ED11CE11CF11CC11420E7D206D6
:1071D000E104F104A1F60F900F90DF91CF91FF90A1
:1071E000EF90DF90CF900895C701B6010E948738D5
:1071F0004BE351E0C701B6010E949538E1CF81E130
:1072000091E00E94433A811108C080E091E00E9421
:10721000463B811102C00E94B3380895C0E0D0E01F
:107220000E94FF38FE0185919491019611F0FE01B4
:107230000995FAE220E53EEF80E0F1502040304031
:107240008040D9F70000ECCF0F931F939B01AC0156
:10725000E0910E01F0910F012250310941095109CD
:1072600086819781A085B1850297A109B109281768
:1072700039074A075B0768F4A281B0E00E94B73E75
:107280000289138924893589600F711F821F931F1A
:1072900003C060E070E0CB011F910F9108950F9340
:1072A0001F93CF93DF93EC01E0910E01F0910F015A
:1072B000198218826C817D818E819F816130710578
:1072C0008105910561F1068117812085318560175F
:1072D00071078207930718F56115710581059105FE
:1072E00039F42081233021F466857785808991895E
:1072F000688779878A879B87611571058105910564
:1073000019F00E94243904C06685778580899189A7
:107310006C877D878E879F8780E090E002C081E048
:1073200090E0DF91CF911F910F910895A4E0B0E01C
:10733000ECE9F9E30C94D03EE0910E01F0910F01DD
:10734000623071058105910508F453C006811781EB
:1073500020853185601771078207930708F049C0BF
:107360002081223019F02330F1F043C09B013327F4
:10737000220F331F472F582F692F77278285938538
:10738000A485B585480F591F6A1F7B1F02E010E0D6
:10739000CE0101960E94463E892B59F569817A817A
:1073A00080E090E02AC09B012F773327220F331F04
:1073B000220F331FAB01BC01A7E076956795579567
:1073C0004795AA95D1F782859385A485B585480F01
:1073D000591F6A1F7B1F04E010E0CE0101960E9436
:1073E000463E892B31F469817A818B819C819F7023
:1073F00004C061E070E080E090E02496E4E00C944A
:10740000EC3EA0E0B0E0E7E0FAE30C94CC3EEC0107
:107410006A017B0102E010E02EEF31E00E94463E5F
:10742000892B39F58881998185359A4A21F526E39A
:1074300030E0B701A601CE010E94463E892B29F417
:107440008881998186349144C1F002E010E022E500
:1074500030E0B701A601CE010E94463E892B39F4E7
:1074600081E0288139812634314441F406C081E02D
:1074700005C083E003C082E001C080E0CDB7DEB785
:10748000E8E00C94E83EA8E2B0E0E9E4FAE30C940A
:10749000C43E5C0110920F0110920E010E94A73DA4
:1074A00080FDB3C040E050E0BA01CE0101960E94D9
:1074B000013A813009F500E110E02EEB31E040E0C7
:1074C00050E0BA01CE0101960E94463E892B19F088
:1074D00081E090E0D7C08D81811103C086E090E00B
:1074E000D1C049845A846B847C84B301A201CE014B
:1074F00001960E94013A03C0412C512C3201833085
:1075000039F38111EBCF04E210E02DE030E0B3015C
:10751000A201CE0101960E94463E892BC9F62A851A
:107520003B8540E050E0211531054105510521F42E
:10753000288D398D4A8D5B8DAC81B0E00E94B73EBD
:107540006B017C018A819B81AC0160E070E0440E9C
:10755000551E661E771ED5011A964D925D926D924C
:107560007C921D97E9811296EC9312972D813E81B2
:1075700015963C932E9314978F819885A0E0B0E0E8
:107580000097A105B10521F48C899D89AE89BF8939
:10759000490104E0969487940A95E1F7840120E07C
:1075A00030E00DA31EA32FA338A78C019D01041B5F
:1075B000150B260B370BC901B8016C197D098E0913
:1075C0009F090DA11EA12FA138A5601B710B820B75
:1075D000930B2E2F30E040E050E00E94953EDA0100
:1075E000C9010296A11DB11DF50186839783A0876D
:1075F000B187BA01A901465F5F40610971094F3F38
:107600005F4E61057105B8F103C082E090E03AC0B9
:10761000873F9F4FA105B10508F460CF83E0D501F6
:107620008C93833029F488A199A1AAA1BBA106C09B
:10763000D701C601840D951DA61DB71DF5018687CE
:107640009787A08BB18B0DA11EA12FA138A5400E4D
:10765000511E621E731E4C0C5D1C6E1C7F1C428AE8
:10766000538A648A758A1182B0920F01A0920E012A
:1076700080E090E007C0873F9F4FA105B10570F6FD
:1076800082E0CDCFA896E0E10C94E03EACE3B0E020
:10769000ECE4FBE30C94C73EC0900E01D0900F01C8
:1076A000C114D10409F423C1D60111961C929E0184
:1076B0002F5C3F4F3CA32BA39C017901F9018081F2
:1076C0002F5F3F4F8032C9F38F3209F479011DA239
:1076D0001EA21FA218A6D7018C91803248F4CE01B9
:1076E00081960E944F391982009709F4CBC030C1AE
:1076F000A0E27A2E4E01BCE08B0E911CEBA1FCA106
:10770000DF01CF010B96A817B90711F07D92FBCFCF
:1077100080E090E028E031E0390FD701A90FB11DDA
:107720009C91913270F09F3261F09E3209F4E4C076
:10773000821738F4DF01A80FB11D9C938F5F932F40
:10774000EACFE30EF11C81E0913208F080E08387FC
:10775000CE0181960E944F39009709F0F9C029A106
:107760003AA12F703327F5E0220F331FFA95E1F786
:107770004DA55EA56FA578A900E210E0CE010196A7
:107780000E94463E892B09F0BDC08981882309F4F7
:10779000DDC02C8523FD0FC06BA17CA1FE013196BD
:1077A000CB01E815F90509F468C04191DC013D9170
:1077B000CD014317B1F3A0900E01B0900F0109A1C4
:1077C0001AA10F5F1F4F09F4C1C08DA59EA5AFA5DB
:1077D000B8A90097A105B10509F4B8C098012F70A8
:1077E0003327232B09F046C00196A11DB11D8DA79B
:1077F0009EA7AFA7B8AB69A57AA58BA59CA5611577
:1078000071058105910541F4F50184819581081781
:10781000190708F09BC02EC0D50112962C91422F5B
:1078200050E0415051099801E4E036952795EA95DA
:10783000E1F742235323452BE9F40E949639623045
:1078400071058105910508F45DC0F5012681378138
:1078500040855185621773078407950708F076C045
:1078600069A77AA78BA79CA70E9424396DA77EA73A
:107870008FA798AB1AA309A372CFFB018385882336
:1078800009F443C089818823A9F18C8584FD32C025
:10789000E0910E01F0910F018081833041F44D8918
:1078A0005E8960E070E0BA015527442703C040E0DC
:1078B00050E0BA018B8D9C8DA0E0B0E0842B952B1D
:1078C000A62BB72BF601868F978FA0A3B1A38D8D22
:1078D0009E8DAF8DB8A1828F938FA48FB58F168A9E
:1078E000178A108E118E81E0818380E001C085E0CF
:1078F00090E02EC083E0FCCF283009F022CF88E052
:107900002BE01DCF81E090E023C024FF1FC0E09159
:107910000E01F0910F018081833041F44D895E8921
:1079200060E070E0BA015527442703C040E050E012
:10793000BA018B8D9C8DA0E0B0E0842B952BA62BFB
:10794000B72B8DA39EA3AFA3B8A7D8CE83E090E0BA
:10795000EC96EDE00C94E33EA0E0B0E0E2EBFCE35B
:107960000C94C43E4C017B015A01C0910E01D09190
:107970000F01FA0111821082209709F4A1C08981B8
:1079800080FFA1C08A8D9B8DAC8DBD8D4E895F8996
:10799000688D798D841B950BA60BB70BA70160E052
:1079A00070E084179507A607B70708F47C01340137
:1079B000412C32E0532EE114F10409F47EC08E898B
:1079C0009F89A88DB98DAC01BD01517066277727BD
:1079D000452B462B472BD1F5DA80DA94AC01BD015B
:1079E00029E076956795579547952A95D1F7D42242
:1079F000C1F4892B8A2B8B2B29F46E8D7F8D88A166
:107A000099A106C06AA17BA18CA19DA10E94963973
:107A10006230710581059105A0F16AA37BA38CA357
:107A20009DA36AA17BA18CA19DA10E94243961150F
:107A300071058105910529F1DC01CB018D0D911DA9
:107A4000A11DB11D8EA39FA3A8A7B9A72E893F8909
:107A50003170C201821B930B67018E159F0508F4DC
:107A60006C014EA15FA168A579A58114910419F458
:107A700080E090E001C0C30186010E94463E892B50
:107A800021F0198281E090E020C08E899F89A88D25
:107A9000B98D8C0D9D1DA11DB11D8E8B9F8BA88F47
:107AA000B98F6C0C7D1CEC18FD08F501808191816B
:107AB0008C0D9D1D918380837ECF80E090E005C07A
:107AC00085E090E002C084E090E0CDB7DEB7E0E171
:107AD0000C94E03EFF920F931F93CF93DF93C82F38
:107AE000D42F152F062FF72E87FF09C040E050E056
:107AF000BA0187E70E946A3D823020F5CF770E9465
:107B000075388C2F0E947A388F2D0E947A38802FFA
:107B10000E947A38812F0E947A388D2F0E947A38FD
:107B2000C03421F0C83421F081E003C085E901C0F0
:107B300087E80E947A38CAE00E94793887FF02C03D
:107B4000C150D1F7CDB7DEB7E5E00C94EB3EA4E031
:107B5000B0E0EDEAFDE30C94CE3E0E94683814E6F6
:107B60000E946D381150E1F71AE00E9478381150E8
:107B7000E1F740E050E0BA0180E40E946A3D8130C4
:107B800009F05AC04AEA51E060E070E088E40E94DF
:107B90006A3D813041F57E0185E0E80EF11C8E01E1
:107BA0000F5F1F4F0E947938F80181938F01EE1506
:107BB000FF05C1F78B81813009F03EC08C818A3A84
:107BC00009F03AC000E117E240E050E060E070E404
:107BD00089EE0E946A3D8823C9F10E946D380150E8
:107BE000110991F729C040E050E0BA0189EE0E94E6
:107BF0006A3D823028F422E0F22E39EEE32E04C0F2
:107C0000FF24F39491E4E92E00E117E240E050E014
:107C1000BA018E2D0E946A3D882331F00E946D3892
:107C20000150110999F708C040E052E060E070E0AF
:107C300080E50E946A3D8111F12CF09210010E94B2
:107C4000783881E0FF20F1F080E01CC040E050E097
:107C5000BA018AE70E946A3D8111EECF8E010F5F63
:107C60001F4F0E947938F80181938F01EE15FF05AF
:107C7000C1F7898186FF03C04CE0F42EDECF84E09B
:107C8000F82EDBCF2496E6E00C94EA3EA0E0B0E0CC
:107C9000ECE4FEE30C94CC3ED82EC92E7901809101
:107CA000100183FD07C0E9E0440F551F661F771FD1
:107CB000EA95D1F781E50E946A3D882319F0C1E079
:107CC000D0E02BC0C0E4DCE90E9479388F3F19F482
:107CD0002197D1F7F4CF8E3F91F7C2E0D2E0C01BDD
:107CE000D10BCE19DF09E114F10419F4ED2CFC2CB1
:107CF00006C00E94793881E0E81AF108F4CF0E94AA
:107D00007938F70181937F0101501109C1F70E9471
:107D100079382197E1F7C0E0D0E00E947838CE01B1
:107D2000CDB7DEB7E8E00C94E83EA1E21A2EAA1B1C
:107D3000BB1BFD010DC0AA1FBB1FEE1FFF1FA2171B
:107D4000B307E407F50720F0A21BB30BE40BF50B18
:107D5000661F771F881F991F1A9469F760957095A1
:107D6000809590959B01AC01BD01CF0108950E94C3
:107D7000F93EA59F900DB49F900DA49F800D911D7D
:107D8000112408952F923F924F925F926F927F92AB
:107D90008F929F92AF92BF92CF92DF92EF92FF921B
:107DA0000F931F93CF93DF93CDB7DEB7CA1BDB0BC7
:107DB0000FB6F894DEBF0FBECDBF09942A8839886C
:107DC00048885F846E847D848C849B84AA84B98473
:107DD000C884DF80EE80FD800C811B81AA81B9817F
:107DE000CE0FD11D0FB6F894DEBF0FBECDBFED0193
:107DF0000895A29FB001B39FC001A39F700D811D84
:107E00001124911DB29F700D811D1124911D0895A3
:107E1000DC0101C06D9341505040E0F70895F894A3
:027E2000FFCF92
:0E7E22004649524D574152452E42494E0000EE
:040000030000700089
:00000001FF
