:107000000C9434380C9460380C9460380C946038CC
:107010000C9460380C9460380C9460380C94603890
:107020000C9460380C9460380C9460380C94603880
:107030000C9460380C9460380C9460380C94603870
:107040000C9460380C9460380C9460380C94603860
:107050000C9460380C9460380C9460380C94603850
:107060000C9460380C94603811241FBECFEFD8E028
:10707000DEBFCDBF84B78093BB0114BE0FB6F894BA
:10708000A8958091600088618093600010926000F4
:107090000FBE11E0A0E0B1E0EAE2FEE702C0059019
:1070A0000D92AE30B107D9F721E0AEE0B1E001C0FA
:1070B0001D92AB3BB207E1F70E941D390C94133FC0
:1070C0000C940038559A569A08955D9A08955D98E3
:1070D00008955E9A08955E9808955E9B0C946938B1
:1070E0000C946B385D9B0C9465380C946738229A2D
:1070F000239A259A2C9A089588EC319731973197E5
:1071000000008A95D1F7089502D02A9801C02A9AE2
:107110008FEF98E087FD2B9A87FF2B98880F1C999B
:1071200083952D9A2D989A95A9F70895FB0183E0F0
:1071300080935700E8958091570080FDFCCF81E156
:1071400080935700E89508950F921F92FB01DA0192
:1071500090E40D901D9081E080935700E895329661
:107160009A95B9F7FB0185E080935700E8958091E7
:10717000570080FDFCCF81E180935700E8951F9078
:107180000F900895CF92DF92EF92FF92CF93DF930B
:1071900000D0CDB7DEB7C12CD12C760140E850E04D
:1071A0006FEF70E08BE391E00E940C3FAE014F5F08
:1071B0005F4F60E870E08BE391E00E94B73CABE387
:1071C000B1E0C6018B539140FC01EA0FFB1FE49133
:1071D0002D91E21318C021E0AB3BB207A9F780E87C
:1071E000C80ED11CE11CF11CC11420E7D206E10439
:1071F000F104A1F60F900F90DF91CF91FF90EF90E7
:10720000DF90CF900895C701B6010E9496384BE3F6
:1072100051E0C701B6010E94A438E1CF81E191E0BD
:107220000E944E3A811108C080E091E00E94353BF7
:10723000811102C00E94C2380895C0E0D0E00E94CF
:107240000E39FE0185919491019611F0FE01099588
:10725000FAE220E53EEF80E0F150204030408040EF
:10726000D9F70000ECCF0F931F93E0910E01F0913E
:107270000F019B01AC01225031094109510986815E
:107280009781A085B1850297A109B109281739070F
:107290004A075B0778F4A281B0E00E94BB3E0289F6
:1072A000138924893589600F711F821F931F1F91D5
:1072B0000F91089560E070E0CB01F9CF0F931F9319
:1072C000CF93DF93EC01E0910E01F0910F01198251
:1072D00018826C817D818E819F816130710581056D
:1072E000910581F10681178120853185601771072D
:1072F0008207930738F5611571058105910539F409
:107300002081233021F4668577858089918968877B
:1073100079878A879B87611571058105910569F0D9
:107320000E9433396C877D878E879F8780E090E04D
:10733000DF91CF911F910F910895668577858089A0
:107340009189F0CF81E090E0F3CFA4E0B0E0EBEAE8
:10735000F9E30C94D03E623071058105910528F463
:1073600061E070E080E090E055C0E0910E01F091A6
:107370000F01C680D780E084F1846C157D058E05F1
:107380009F0570F72081223041F1233049F79B019E
:107390002F773327220F331F220F331FAB01BC017E
:1073A000A7E07695679557954795AA95D1F7C2843A
:1073B000D384E484F5844C0D5D1D6E1D7F1D04E0B7
:1073C00010E0CE0101960E944B3E892B49F669815F
:1073D0007A818B819C819F701DC09B013327220F76
:1073E000331F472F582F692F7727C284D384E48413
:1073F000F5844C0D5D1D6E1D7F1D02E010E0CE0179
:1074000001960E944B3E892B09F0AACF69817A81AF
:1074100080E090E02496E8E00C94EC3EA0E0B0E040
:10742000E4E1FAE30C94D03EEC016A017B0102E056
:1074300010E02EEF31E00E944B3E892B59F58881F8
:10744000998185359A4A41F526E330E0B701A601D6
:10745000CE010E944B3E892B59F488819981863454
:10746000914431F480E0CDB7DEB7E8E00C94EC3E17
:1074700002E010E022E530E0B701A601CE010E9453
:107480004B3E892B29F4888199818634914451F3AC
:1074900081E0E9CF83E0E7CF82E0E5CFA4E2B0E08E
:1074A000E4E5FAE30C94C63E1C0110920F01109221
:1074B0000E010E94B03D80FDC6C040E050E0BA0120
:1074C000CE0101960E940E3A813009F0B8C000E169
:1074D00010E02EEB31E040E050E0BA01CE01019621
:1074E0000E944B3E892B31F081E090E0A496E2E1CE
:1074F0000C94E23E8D81811103C086E090E0F6CFCE
:1075000049845A846B847C84B301A201CE01019624
:107510000E940E3A833041F38111EFCF04E210E074
:107520002DE030E0B301A201CE0101960E944B3E56
:10753000892BD1F62A853B8540E050E021153105A5
:107540004105510521F4288D398D4A8D5B8DAC8123
:10755000B0E00E94BB3E4B015C014A815B8160E070
:1075600070E0440E551E661E771EF101428653865A
:107570006486758629812283CD80DE80D582C4828F
:107580008F819885A0E0B0E00097A105B10521F4B6
:107590008C899D89AE89BF8934E0D694C7943A9589
:1075A000E1F7E12CF12C841B950BA60BB70BBC016A
:1075B000CD01681979098A099B096C197D098E0921
:1075C0009F0930E040E050E00E94993EDA01C90195
:1075D0000296A11DB11DF10186839783A087B18713
:1075E000265F3F40410951092F3F3F4E410551055C
:1075F00068F1873F9F4FA105B10508F47ECF83E076
:10760000F101808388A199A1AAA1BBA18687978750
:10761000A08BB18BC40CD51CE61CF71CC80CD91C64
:10762000EA1CFB1CF101C28AD38AE48AF58A118222
:1076300030920F0120920E0180E090E057CF412C54
:10764000512C320167CF82E090E050CF873F9F4FAF
:10765000A105B105A0F682E0F1018083D501C40146
:10766000840D951DA61DB71DD1CF4F925F926F92CD
:107670007F929F92AF92BF92CF92DF92EF92FF9252
:107680000F931F93CF93DF93CDB7DEB7EC970FB671
:10769000F894DEBF0FBECDBFC0900E01D0900F0199
:1076A000C114D10409F45BC1F60111829E012F5C63
:1076B0003F4F3CA32BA39C017901F90180812F5FEF
:1076C0003F4F8032C9F38F3209F479011DA21EA207
:1076D0001FA218A6F7018081803238F1A0E29A2E0D
:1076E000EBA1FCA1DF01CF010B968A179B07D9F50F
:1076F00020E090E088E041E0490FD701A90FB11DDB
:107700009C91913290F19F3281F19E3209F42AC10D
:10771000281758F5DF01A20FB11D9C93382F81E087
:10772000820F282F942F832FE6CFCE0181960E94BF
:107730005E391982009709F4DBC0EC960FB6F89415
:10774000DEBF0FBECDBFDF91CF911F910F91FF9094
:10775000EF90DF90CF90BF90AF909F907F906F9011
:107760005F904F9008959D92C0CFE40EF11C81E090
:10777000913208F080E08387CE0181960E945E39C5
:107780000097D9F629A13AA12F703327F5E0220FEF
:10779000331FFA95E1F74DA55EA56FA578A900E224
:1077A00010E0CE0101960E944B3E892B19F081E03A
:1077B00090E0C3CF8981811103C083E090E0BDCF09
:1077C0008C8583FD13C00BA11CA19E012F5F3F4F31
:1077D000D801B801655F7F4F6A177B0709F463C062
:1077E000F90141919F019D914917B1F309A11AA196
:1077F0000F5F1F4F11F38DA59EA5AFA5B8A90097E8
:10780000A105B105D1F298012F703327232BD9F4AC
:10781000A0900E01B0900F010196A11DB11D8DA782
:107820009EA7AFA7B8AB69A57AA58BA59CA5F501C6
:10783000611571058105910549F4848195810817C9
:10784000190708F0BACF1AA309A39CCF228130E010
:10785000A901415051099801E4E036952795EA9530
:10786000E1F724233523232B71F70E94A5396230D9
:1078700071058105910508F49ACFF501468057807E
:1078800060847184641575058605970508F095CFA9
:1078900069A77AA78BA79CA70E9433396DA77EA7FB
:1078A0008FA798ABD0CFF8019385911121C084FFA9
:1078B00084CFE0910E01F0910F0180818330A1F41B
:1078C0008D899E89A0E0B0E0DC01992788274B8D47
:1078D0005C8D60E070E0842B952BA62BB72B8DA3DD
:1078E0009EA3AFA3B8A7FCCE80E090E0DC01EFCF71
:1078F0008981882309F461CF8C8584FD5ECFE09176
:107900000E01F0910F018081833029F58D899E89C8
:10791000A0E0B0E0DC01992788274B8D5C8D60E00A
:1079200070E0842B952BA62BB72BF601868F978FB3
:10793000A0A3B1A38D8D9E8DAF8DB8A1828F938FA3
:10794000A48FB58F168A178A108E118E81E08183DD
:1079500080E090E0F2CE80E090E0DC01DECF85E0D8
:1079600090E0EBCE883009F000CF3BE0DACEA0E02B
:10797000B0E0EDEBFCE30C94C83E4C017B015A01F6
:10798000C0910E01D0910F01FA011182108220974F
:1079900009F4A3C0898180FFA3C08A8D9B8DAC8D23
:1079A000BD8D4E895F89688D798D841B950BA60BE3
:1079B000B70BA70160E070E084179507A607B7072B
:1079C00008F47C013401412C32E0532EE114F1041F
:1079D00019F480E090E02BC08E899F89A88DB98D25
:1079E000AC01BD01517066277727452B462B472BED
:1079F00009F040C0DA80DA94AC01BD0129E0769547
:107A00006795579547952A95D1F7D42201F5892B8B
:107A10008A2B8B2B89F46E8D7F8D88A199A1623082
:107A200071058105910578F4198281E090E0CDB768
:107A3000DEB7E0E10C94E43E6AA17BA18CA19DA19C
:107A40000E94A539ECCF6AA37BA38CA39DA36AA156
:107A50007BA18CA19DA10E9433396115710581051F
:107A6000910511F36D0D711D811D911D6EA37FA3F5
:107A700088A799A72E893F893170C201821B930B79
:107A800067018E159F0508F46C014EA15FA168A5E2
:107A900079A581149104F9F480E090E086010E94B8
:107AA0004B3E892B09F68E899F89A88DB98D8C0D47
:107AB0009D1DA11DB11D8E8B9F8BA88FB98F6C0C46
:107AC0007D1CEC18FD08F50180819181C80ED91E3E
:107AD000D182C0827BCFC301E1CF85E090E0A7CF08
:107AE00084E090E0A4CFFF920F931F93CF93DF9396
:107AF000C82FD42F152F062FF72E87FF09C040E07F
:107B000050E0BA0187E70E94733D823000F5CF77DD
:107B10000E9484388C2F0E9489388F2D0E948938CA
:107B2000802F0E948938812F0E9489388D2F0E94D2
:107B30008938C03489F0C83489F487E80E948938CC
:107B4000CAE00E94883887FF02C0C150D1F7CDB784
:107B5000DEB7E5E00C94EF3E85E9F0CF81E0EECFB3
:107B6000A4E0B0E0E6EBFDE30C94D03E0E94773851
:107B700014E60E947C381150E1F71AE00E94873821
:107B80001150E1F740E050E0BA0180E40E94733DFB
:107B9000182F813009F052C04AEA51E060E070E0ED
:107BA00088E40E94733D813009F04AC0CE010196FD
:107BB0007C016E0195E0C90ED11C87010E948838B6
:107BC000F80181938F01CE16DF06C1F78B818130DA
:107BD000A9F58C818A3A91F590E1C92E97E2D92EC8
:107BE00040E050E060E070E489EE0E94733D811156
:107BF0001FC040E050E0BA018AE70E94733D811146
:107C00001DC00E948838F70181937F010E171F075E
:107C1000C1F7898186FD3DC014E0109310010E94D8
:107C2000873881E0111180E02496E8E00C94EC3E66
:107C30000E947C38F1E0CF1AD10891F610E0EDCF28
:107C400040E050E0BA0189EE0E94733D8230B8F006
:107C500001E480E1E82E87E2F82E40E050E0BA012E
:107C6000802F0E94733D81110DC040E052E060E022
:107C700070E080E50E94733D8111E0CFCECF12E02D
:107C800009EEE7CF0E947C38F1E0EF1AF10829F7FE
:107C9000D5CF1CE0C2CFA0E0B0E0E1E5FEE30C945C
:107CA000D03ED82EC92E79018091100183FD07C0E6
:107CB00089E0440F551F661F771F8A95D1F781E52C
:107CC0000E94733D882351F0C1E0D0E00E948738C4
:107CD000CE01CDB7DEB7E8E00C94EC3EC0E4DCE9C1
:107CE0000E9488388F3F19F42197D1F7EDCF8E3F4E
:107CF00059F7C2E0D2E0C01BD10BCE19DF09E11465
:107D0000F10489F4ED2CFC2C0E948838F701819352
:107D10007F0101501109C1F70E9488382197E1F7CE
:107D2000C0E0D0E0D3CF0E94883881E0E81AF108A3
:107D3000E6CFA1E21A2EAA1BBB1BFD010DC0AA1F94
:107D4000BB1FEE1FFF1FA217B307E407F50720F0C4
:107D5000A21BB30BE40BF50B661F771F881F991F3F
:107D60001A9469F760957095809590959B01AC0188
:107D7000BD01CF0108950E94FD3EA59F900DB49FC7
:107D8000900DA49F800D911D112408952F923F9274
:107D90004F925F926F927F928F929F92AF92BF921B
:107DA000CF92DF92EF92FF920F931F93CF93DF93C7
:107DB000CDB7DEB7CA1BDB0B0FB6F894DEBF0FBE24
:107DC000CDBF09942A88398848885F846E847D8471
:107DD0008C849B84AA84B984C884DF80EE80FD8073
:107DE0000C811B81AA81B981CE0FD11D0FB6F894E9
:107DF000DEBF0FBECDBFED010895A29FB001B39FBE
:107E0000C001A39F700D811D1124911DB29F700DA3
:107E1000811D1124911D0895DC0101C06D93415015
:0A7E20005040E0F70895F894FFCFFA
:0E7E2A004649524D574152452E42494E0000E6
:040000030000700089
:00000001FF
