:107000000C9434380C9451380C9451380C945138F9
:107010000C9451380C9451380C9451380C945138CC
:107020000C9451380C9451380C9451380C945138BC
:107030000C9451380C9451380C9451380C945138AC
:107040000C9451380C9451380C9451380C9451389C
:107050000C9451380C9451380C9451380C9451388C
:107060000C9451380C94513811241FBECFEFD8E046
:10707000DEBFCDBF11E0A0E0B1E0E6E7FEE702C071
:1070800005900D92AE30B107D9F722E0AEE0B1E045
:1070900001C01D92AA33B207E1F70E94033A0C9493
:1070A000393F0C940038559A569A08955D9A089580
:1070B0005D9808955E9A08955E9808955E9B0C947D
:1070C0005A380C945C385D9B0C9456380C945838A4
:1070D000549A239A259A2C9A089580EA31973197E9
:1070E000319700008A95D1F7089502D05C9801C0CD
:1070F0005C9A8FEF98E087FD2B9A87FF2B98880F7B
:107100001C9983952D9A2D989A95A9F70895FB01BE
:1071100083E080935700E8958091570080FDFCCF75
:1071200081E180935700E89508950F921F92FB012B
:10713000DA0190E40D901D9081E080935700E8956E
:1071400032969A95B9F7FB0185E080935700E89550
:107150008091570080FDFCCF81E180935700E89536
:107160001F900F90089581E492E4AFE0B0E0209189
:10717000C00027FF03C08091C60008950197A109B0
:10718000B109A9F78FEF08959091C00095FFFCCF4A
:107190008093C60008950F931F93E0913702F091FA
:1071A0003802DC0112972681378122503109A2175B
:1071B000B30778F4228130E00E94E83E008911890B
:1071C00022893389600F711F821F931F1F910F91B6
:1071D000089560E070E0CB01F9CFCF93DF93EC012D
:1071E000E0913702F0913802198218828C819D81DA
:1071F00081309105C9F02681378182179307A0F469
:107200009F838E83009759F00E94CB3868877987D7
:107210008A879B8780E090E0DF91CF910895648515
:10722000758586859785F2CF81E090E0F5CFCF9286
:10723000DF92EF92FF92CF93C82F6A017B0187FF05
:1072400009C040E050E0BA0187E70E941739823058
:1072500000F5CF770E9475388C2F0E947A388F2DD9
:107260000E947A388E2D0E947A388D2D0E947A38AD
:107270008C2D0E947A38C03491F0C83491F487E89C
:107280000E947A38CAE00E94793887FF02C0C15054
:10729000D1F7CF91FF90EF90DF90CF90089585E9DF
:1072A000EFCF81E0EDCFA0E0B0E0E9E5F9E30C94A9
:1072B0000C3F6C0179018091390283FD07C089E0A0
:1072C000440F551F661F771F8A95D1F781E50E94ED
:1072D0001739882351F0C1E0D0E00E947838CE0100
:1072E000CDB7DEB7E8E00C94283FC0E4DCE90E94AB
:1072F00079388F3F19F42197D1F7EDCF8E3F59F7A9
:10730000C2E0D2E0C01BD10BCE19DF09E114F104B9
:1073100031F00E94793881E0E81AF108F7CF0E9435
:107320007938F60181936F0101501109C1F70E946C
:1073300079382197E1F7C0E0D0E0CFCFA0E0B0E00E
:10734000E4EAF9E30C940C3FEC016A017B0102E0F2
:1073500010E02EEF31E00E945339892BD1F488815F
:10736000998185359A4AB9F426E330E0B701A60140
:10737000CE010E945339892B81F481E02881398123
:107380002634314409F480E0CDB7DEB7E8E00C9450
:10739000283F83E0F9CF82E0F7CF81E0F5CFA4E08A
:1073A000B0E0E5EDF9E30C94103F8230910518F45C
:1073B00081E090E024C0E0913702F091380226810C
:1073C000378182179307A0F72081223089F79C012B
:1073D0003327220F331F892F9927408551856285D6
:1073E0007385480F591F611D711D02E010E0CE0129
:1073F00001960E945339892BD9F689819A81249666
:10740000E4E00C942C3FAEE3B0E0E9E0FAE30C9446
:10741000023FCE0105969EAF8DAF83E38093C400FB
:107420001092C50088E18093C10086E08093C2007D
:107430005098589A10E073E0D72ECC24C394E5E01E
:10744000BE2EF1E1AF2E0E94B338982E90E389173B
:1074500039F1EFEF8E1709F425C1112309F41CC18E
:10746000F1E58F1709F418C121E4821709F44EC021
:1074700085E5981609F44DC096E5991609F47CC483
:10748000E2E49E1669F0F5E49F1651F025E79216A6
:1074900039F0892D8F7E843631F080E598125EC0F8
:1074A00000E010E017C00E94B338809392010E9460
:1074B000B338809391010E94B33891E0853409F08C
:1074C00090E09093900194E699120EC00091910182
:1074D0001091920160E1E62E61E0F62EC701805125
:1074E000914080179107C0F00E94B3388032E1F7D5
:1074F00084E10E94C438F1E49F1220C08091100101
:10750000803881F482E00E94C43825C001E010E098
:10751000E1CF02E010E0DECF0E94B338F7018193A3
:107520007F01DCCF813811F481E0EDCF823811F496
:1075300080E1E9CF883931F583E0E5CF25E5921286
:107540000FC08091100190911101880F991F9093A5
:107550000F0180930E0180E10E94C43811E073CFC7
:1075600086E59812F3C380911001803359F480911D
:107570001201811102C08EE1C6CF813009F0EFC344
:1075800085E9C1CF80E0BFCF94E69912EAC380912C
:107590009001882321F120E0822F90E04091910119
:1075A0005091920184179507B0F6F999FECF40915A
:1075B0000E0150910F0152BD41BD805F9E4FFC01F5
:1075C000808180BDFA9AF99A80910E0190910F0105
:1075D000019690930F0180930E012F5FDDCFF999F3
:1075E000FECF20910E0130910F01F901D09257008A
:1075F000E89507B600FCFDCFA0E1B1E080E090E0A7
:107600004D915D91F901E80FF91F0A01C0925700F1
:10761000E895112402968038910591F7F901B0920E
:107620005700E89507B600FCFDCFA0925700E895FB
:1076300092CF80919001882301F1F999FECF80913A
:107640000E0190910F0192BD81BDF89A80B50E9404
:10765000C43880910E0190910F01019690930F0113
:1076600080930E01FFEFEF1AFF0A80919101909134
:107670009201E816F906E8F26ECF00910E01109122
:107680000F01F80184910E94C4380F5F1F4F1093BF
:107690000F0100930E01E6CF84E10E94C43880E11F
:1076A0000E94C43880ED97E020E931E0F90131977C
:1076B000F1F70197D9F710923802109237020E9421
:1076C000683814E60E946D381150E1F71AE00E9404
:1076D00078381150E1F740E050E0BA0180E40E94B0
:1076E0001739F82E21E082137EC04AEA51E060E0AB
:1076F00070E088E40E941739813009F076C0CE012D
:1077000001967C018C010E947938F80181938F01E8
:107710008DAD9EAD8E179F07B1F78B81813009F03B
:1077200062C08C818A3A09F05EC040E1C42E47E213
:10773000D42E40E050E060E070E489EE0E941739FA
:1077400081114AC040E050E0BA018AE70E9417392F
:10775000811149C00E947938F70181937F010E178A
:107760001F07C1F7898186FF69C03CE0F32EF092C4
:1077700039020E947838FF2009F415C140E050E03A
:10778000BA01CE0101960E949E39813009F007C1ED
:1077900000E110E02EEB31E040E050E0BA01CE0114
:1077A00001960E945339892B09F44BC081E090E087
:1077B000892B09F4FBC0E0E0F0E0859194910196FB
:1077C00009F0B5C280E593EC20E931E0F901319789
:1077D000F1F70197D9F721CE0E946D3891E0C91ACF
:1077E000D10809F0A6CFF12CC2CF40E050E0BA0199
:1077F00089EE0E9417398230C0F492E0F92E29EE0A
:10780000E22E00E117E240E050E0BA018E2D0E9426
:10781000173981110DC040E052E060E070E080E572
:107820000E9417398111DFCFA2CF81E4E82EE9CF82
:107830000E946D380150110931F7D5CF04E0F02EC8
:1078400096CF8D81811103C086E090E0B1CFC984CD
:10785000DA84EB84FC84B701A601CE0101960E9474
:107860009E39833009F4A2CF8111EECF04E210E0FB
:107870002DE030E0B701A601CE0101960E945339F8
:10788000892B09F093CF2A853B8540E050E02115F4
:1078900031054105510521F4288D398D4A8D5B8DC7
:1078A000AC81B0E00E94F73E4B015C014A815B81F4
:1078B00060E070E0C40ED51EE61EF71EC0921B02EB
:1078C000D0921C02E0921D02F0921E0229812093A8
:1078D0001502ED81FE81F0931802E09317028F816B
:1078E0009885A0E0B0E00097A105B10521F48C894E
:1078F0009D89AE89BF8914E0F695E7951A95E1F761
:107900002F01612C712C841B950BA60BB70BBC01AE
:10791000CD01681979098A099B09641975098609D5
:10792000970930E040E050E00E94C63EDA01C9010C
:107930000296A11DB11D90931A0280931902265F31
:107940003F40410951092F3F3F4E4105510508F085
:107950007BCF82E080931302C80CD91CEA1CFB1C6D
:10796000C0921F02D0922002E0922102F0922202E5
:10797000C40CD51CE61CF71CC0922302D092240232
:10798000E0922502F09226021092140283E192E026
:10799000909338028093370280E090E009CFC12CA9
:1079A000D12C76015ECF82E090E002CFC09037020A
:1079B000D0903802C114D10409F46DC1F6011182CE
:1079C00085E290E08C0F9D1F9CAB8BAB1EAA1DAA7D
:1079D000A0E08A2EA1E09A2EB0E25B2EEBA9FCA9D2
:1079E000DF01CF010B968A179B07E9F420E090E0B6
:1079F00088E041E0490FD401A90FB11D9C9191325B
:107A0000A0F09F3291F09E3209F4B1C1281768F4BA
:107A1000DF01A20FB11D9C93382F81E0820F282F28
:107A2000942F832FE6CF5D92DECF840E911C81E0F0
:107A3000913208F080E08387CE01C1960E94ED3834
:107A40005C01892BC9F429A93AA92F703327F5E0E5
:107A5000220F331FFA95E1F749AD5AAD6BAD7CADFE
:107A600000E210E0CE0101960E945339892B09F4FF
:107A700083C0AA24A394B12CA1109DCE412C512CDB
:107A8000320143E1242E42E0342E40E850E06FEF13
:107A900070E083E991E00E94BF3EE0903702F090F1
:107AA0003802E114F10409F44BC0F701818180FF31
:107AB00047C0808D918DA28DB38D4489558966898B
:107AC0007789841B950BA60BB70B80389105A10510
:107AD000B10520F080E890E0A0E0B0E06C0133E96F
:107AE000832E31E0932EC114D10451F1F701848922
:107AF0009589A689B789AC01BD01517066277727A2
:107B0000452B462B472B09F0E7C012811150AC01E1
:107B1000BD0129E076956795579547952A95D1F748
:107B2000142309F0C4C0892B8A2B8B2B09F0B7C012
:107B3000848D958DF7018230910508F0B6C01182D1
:107B4000A3E9B1E0C20183599140FC01EA0FFB1F98
:107B5000E4912D91E213EFC02A163B06B1F7F0E84D
:107B60004F0E511C611C711C411420E75206610428
:107B7000710409F08ACF1FCE8981811104C073E09E
:107B8000A72EB12C79CF8C8583FD13C00BA91CA91E
:107B90009E012F5F3F4FD801A801455F5F4F4A17F5
:107BA0005B0709F456C0F90161919F019D91691726
:107BB000B1F3E9A8FAA8FFEFEF1AFF0A01F389ADC4
:107BC0009AADABADBCAD0097A105B105C1F297016F
:107BD0002F703327232BB1F4609037027090380256
:107BE0000196A11DB11D89AF9AAFABAFBCAF8FA9F4
:107BF00098ADF301009749F484819581E816F90660
:107C000008F0BDCFFAAAE9AA1ECF228130E02150A8
:107C10003109A70164E0569547956A95E1F7242359
:107C20003523232B79F70E94CF398230910508F450
:107C300020CFF301268137818217930708F09FCF69
:107C400098AF8FAB0E94CB3869AF7AAF8BAF9CAF48
:107C5000D9CFF80193858071911107C009F48FCFB6
:107C60008B8D9C8D9EAB8DABB9CE811188CF8B8DCA
:107C70009C8DF601958F848F8D8D9E8DAF8DB8A1D3
:107C8000808F918FA28FB38F148A158A168A178AD4
:107C900081E08183F1CE55E0A52EB12CEDCEF70128
:107CA000868D978D0E94CF3945CF978F868FF701AC
:107CB000868D978D0E94CB386115710581059105E0
:107CC00011F4F7013CCF610F711D811D911DF7016A
:107CD00060A371A382A393A3F7012489358931702E
:107CE000A12C82E0B82EA21AB30ACA14DB0408F44D
:107CF0005601F70140A151A162A173A18501C40100
:107D00000E945339F701892B09F019CF848995898D
:107D1000A689B7898A0D9B1DA11DB11D848B958BEA
:107D2000A68BB78B8A0C9B1CCA18DB08DCCEE0E064
:107D3000F0E0099547CDC301B2010E94873843E9BD
:107D400051E0C301B2010E94953809CFF5E79F12B7
:107D50001BCC8EE10E94C43885E90E94C4388FE0B4
:107D6000D2CB24E79212F7CBE12CF12C7ECC8830D9
:107D700009F05BCE3BE053CE04E010E0ABCBDC017E
:107D800001C06D9341505040E0F70895A1E21A2ED2
:107D9000AA1BBB1BFD010DC0AA1FBB1FEE1FFF1FAF
:107DA000A217B307E407F50720F0A21BB30BE40BFF
:107DB000F50B661F771F881F991F1A9469F7609546
:107DC0007095809590959B01AC01BD01CF01089500
:107DD000A29FB001B39FC001A39F700D811D11240C
:107DE000911DB29F700D811D1124911D08950E9457
:107DF000E83EA59F900DB49F900DA49F800D911D0E
:107E0000112408952F923F924F925F926F927F922A
:107E10008F929F92AF92BF92CF92DF92EF92FF929A
:107E20000F931F93CF93DF93CDB7DEB7CA1BDB0B46
:107E30000FB6F894DEBF0FBECDBF09942A883988EB
:107E400048885F846E847D848C849B84AA84B984F2
:107E5000C884DF80EE80FD800C811B81AA81B981FE
:107E6000CE0FD11D0FB6F894DEBF0FBECDBFED0112
:067E70000895F894FFCF15
:0E7E76004649524D574152452E42494E00009A
:040000030000700089
:00000001FF
