:107000000C9434380C9451380C9451380C945138F9
:107010000C9451380C9451380C9451380C945138CC
:107020000C9451380C9451380C9451380C945138BC
:107030000C9451380C9451380C9451380C945138AC
:107040000C9451380C9451380C9451380C9451389C
:107050000C9451380C9451380C9451380C9451388C
:107060000C9451380C94513811241FBECFEFD8E046
:10707000DEBFCDBF11E0A0E0B1E0E2E6FEE702C076
:1070800005900D92AE30B107D9F722E0AEE0B1E045
:1070900001C01D92AA33B207E1F70E94033A0C9493
:1070A0002F3F0C940038559A569A08955D9A08958A
:1070B0005D9808955E9A08955E9808955E9B0C947D
:1070C0005A380C945C385D9B0C9456380C945838A4
:1070D000549A239A259A2C9A089580EA31973197E9
:1070E000319700008A95D1F7089502D05C9801C0CD
:1070F0005C9A8FEF98E087FD2B9A87FF2B98880F7B
:107100001C9983952D9A2D989A95A9F70895FB01BE
:1071100083E080935700E8958091570080FDFCCF75
:1071200081E180935700E89508950F921F92FB012B
:10713000DA0190E40D901D9081E080935700E8956E
:1071400032969A95B9F7FB0185E080935700E89550
:107150008091570080FDFCCF81E180935700E89536
:107160001F900F90089581E492E4AFE0B0E0209189
:10717000C00027FF03C08091C60008950197A109B0
:10718000B109A9F78FEF08959091C00095FFFCCF4A
:107190008093C60008950F931F93E0913702F091FA
:1071A0003802DC0112972681378122503109A2175B
:1071B000B30778F4228130E00E94DE3E0089118915
:1071C00022893389600F711F821F931F1F910F91B6
:1071D000089560E070E0CB01F9CFCF93DF93EC012D
:1071E000E0913702F0913802198218828C819D81DA
:1071F00081309105C9F02681378182179307A0F469
:107200009F838E83009759F00E94CB3868877987D7
:107210008A879B8780E090E0DF91CF910895648515
:10722000758586859785F2CF81E090E0F5CFCF9286
:10723000DF92EF92FF92CF93C82F6A017B0187FF05
:1072400009C040E050E0BA0187E70E941739823058
:1072500000F5CF770E9475388C2F0E947A388F2DD9
:107260000E947A388E2D0E947A388D2D0E947A38AD
:107270008C2D0E947A38C03491F0C83491F487E89C
:107280000E947A38CAE00E94793887FF02C0C15054
:10729000D1F7CF91FF90EF90DF90CF90089585E9DF
:1072A000EFCF81E0EDCFA0E0B0E0E9E5F9E30C94A9
:1072B000023F6C0179018091390283FD07C089E0AA
:1072C000440F551F661F771F8A95D1F781E50E94ED
:1072D0001739882351F0C1E0D0E00E947838CE0100
:1072E000CDB7DEB7E8E00C941E3FC0E4DCE90E94B5
:1072F00079388F3F19F42197D1F7EDCF8E3F59F7A9
:10730000C2E0D2E0C01BD10BCE19DF09E114F104B9
:1073100031F00E94793881E0E81AF108F7CF0E9435
:107320007938F60181936F0101501109C1F70E946C
:1073300079382197E1F7C0E0D0E0CFCFA0E0B0E00E
:10734000E4EAF9E30C94023FEC016A017B0102E0FC
:1073500010E02EEF31E00E945339892BD1F488815F
:10736000998185359A4AB9F426E330E0B701A60140
:10737000CE010E945339892B81F481E02881398123
:107380002634314409F480E0CDB7DEB7E8E00C9450
:107390001E3F83E0F9CF82E0F7CF81E0F5CFA4E094
:1073A000B0E0E5EDF9E30C94063F8230910518F466
:1073B00081E090E024C0E0913702F091380226810C
:1073C000378182179307A0F72081223089F79C012B
:1073D0003327220F331F892F9927408551856285D6
:1073E0007385480F591F611D711D02E010E0CE0129
:1073F00001960E945339892BD9F689819A81249666
:10740000E4E00C94223FAEE3B0E0E9E0FAE30C9450
:10741000F83E83E38093C4001092C50088E1809316
:10742000C10086E08093C2005098589A00E0F12C89
:10743000DD24D39463E0C62E75E0B72EE1E1AE2ED5
:107440000E94B338182F8033F1F08F3F09F41EC12A
:10745000FF2009F415C1813509F412C1813409F402
:1074600046C0853509F447C0863509F47AC48234AC
:1074700051F0853441F0853731F08F7E843631F01C
:10748000103509F05EC0E12CF12C16C00E94B33813
:10749000809392010E94B338809391010E94B33887
:1074A00091E0853409F090E090939001143671F4E6
:1074B000E0909101F090920130E1832E31E0932E23
:1074C000C401805191408E159F05C8F00E94B338C9
:1074D0008032E1F784E10E94C438113411F58091C3
:1074E0001001803891F482E00E94C43826C0EE2456
:1074F000E394F12CE1CF42E0E42EF12CDDCF0E94A9
:10750000B338F40181934F01DBCF813811F481E06E
:10751000EBCF823811F480E1E7CF883939F583E089
:10752000E3CF153589F48091100190911101880FF6
:10753000991F90930F0180930E0180E10E94C4383F
:1075400001E0FF24F3947CCF163509F0F4C3809159
:107550001001803359F480911201811102C08EE133
:10756000C3CF813009F0F0C385E9BECF80E0BCCF46
:10757000143609F0EBC380919001882321F120E0BB
:10758000822F90E0409191015091920184179507CC
:10759000A0F6F999FECF40910E0150910F0152BD16
:1075A00041BD805F9E4FFC01808180BDFA9AF99AAF
:1075B00080910E0190910F01019690930F0180939D
:1075C0000E012F5FDDCFF999FECF20910E01309192
:1075D0000F01F901C0925700E89507B600FCFDCFF6
:1075E000A0E1B1E080E090E04D915D91F901E80FFC
:1075F000F91F0A01D0925700E895112402968038AD
:10760000910591F7F901B0925700E89507B600FC93
:10761000FDCFA0925700E89590CF809190018823EC
:1076200001F1F999FECF80910E0190910F0192BD69
:1076300081BDF89A80B50E94C43880910E01909166
:107640000F01019690930F0180930E01FFEFEF1A47
:10765000FF0A8091910190919201E816F906E8F2F3
:107660006CCF00910E0110910F01F80184910E94DE
:10767000C4380F5F1F4F10930F0100930E01E6CF28
:1076800084E10E94C43880E10E94C438013051F482
:1076900080E090E0FC01259134912F3F3F4F11F0A5
:1076A000FC010995CE0105969EAF8DAF3E0195E296
:1076B000690E711C10923802109237020E946838CD
:1076C00014E60E946D381150E1F71AE00E947838F4
:1076D0001150E1F740E050E0BA0180E40E94173910
:1076E000182F813009F07FC04AEA51E060E070E075
:1076F00088E40E941739813009F077C0FE01319685
:107700007F018F010E947938F80181938F018DAD3F
:107710009EAD8E179F07B1F78B81813009F063C052
:107720008C818A3A09F05FC090E1C92E97E2D92E88
:1077300040E050E060E070E489EE0E94173981116A
:107740004BC040E050E0BA018AE70E94173981112E
:107750004AC00E947938F70181937F010E171F07F5
:10776000C1F7898186FF6AC01CE0109339020E942C
:107770007838112309F415C140E050E0BA01CE0178
:1077800001960E949E39813009F007C100E110E0A6
:107790002EEB31E040E050E0BA01CE0101960E94AC
:1077A0005339892B09F44CC081E090E0892B09F40E
:1077B000FBC080E090E0FC01259134912F3F3F4FCA
:1077C00009F0ABC280E593EC20E931E0F901319793
:1077D000F1F70197D9F76ECF0E946D3891E0C91A81
:1077E000D10809F0A5CF10E0C0CF40E050E0BA01C9
:1077F00089EE0E9417398230C0F412E009EE80E170
:10780000E82E87E2F82E40E050E0BA01802F0E9477
:10781000173981110CC040E052E060E070E080E573
:107820000E9417398111DFCFA0CF01E4E8CF0E9479
:107830006D38F1E0EF1AF10831F7D5CF14E095CFAC
:107840008D81811103C086E090E0B0CFC984DA84D5
:10785000EB84FC84B701A601CE0101960E949E39FB
:10786000833009F4A1CF8111EECF04E210E02DE0C6
:1078700030E0B701A601CE0101960E945339892B51
:1078800009F092CF2A853B8540E050E02115310573
:107890004105510521F4288D398D4A8D5B8DAC81D0
:1078A000B0E00E94ED3E4B015C014A815B8160E0EB
:1078B00070E0C40ED51EE61EF71EC0921B02D092C9
:1078C0001C02E0921D02F0921E02298120931502F3
:1078D0002D803E8030921802209217028F81988569
:1078E000A0E0B0E00097A105B10521F48C899D8945
:1078F000AE89BF8914E0369427941A95E1F7412C9C
:10790000512C841B950BA60BB70B88199909AA0952
:10791000BB09BC01CD01621973098409950930E0E6
:1079200040E050E00E94BC3EDA01C9010296A11D70
:10793000B11D90931A0280931902265F3F404109BE
:1079400051092F3F3F4E4105510508F07CCF82E0A1
:1079500080931302C80CD91CEA1CFB1CC0921F02A6
:10796000D0922002E0922102F0922202C20CD31C9B
:10797000E41CF51CC0922302D0922402E09225025E
:10798000F09226021092140283E192E09093380262
:107990008093370280E090E009CFC12CD12C760192
:1079A0005FCF82E090E002CFE0903702F0903802A3
:1079B000E114F10409F465C1F70111827CAA6BAAF4
:1079C0001EAA1DAAA0E0AA2EA1E0BA2EB0E25B2E4C
:1079D000EBA9FCA9DF01CF010B968A179B07E9F4FD
:1079E00020E090E088E041E0490FD501A90FB11DEA
:1079F0009C919132A0F09F3291F09E3209F4ACC17B
:107A0000281768F4DF01A20FB11D9C93382F81E085
:107A1000820F282F942F832FE6CF5D92DECFA40E06
:107A2000B11C81E0913208F080E08387CE01C196DD
:107A30000E94ED386C01892BC9F429A93AA92F704D
:107A40003327F5E0220F331FFA95E1F749AD5AAD20
:107A50006BAD7CAD00E210E0CE0101960E9453397F
:107A6000892B09F480C0CC24C394D12CC110A1CEA1
:107A7000212C312C210140E850E06FEF70E083E9C8
:107A800091E00E94B53EE0903702F0903802E11498
:107A9000F10409F44BC0F701818180FF47C0808D5C
:107AA000918DA28DB38D4489558966897789841B10
:107AB000950BA60BB70B80389105A105B10520F0F9
:107AC00080E890E0A0E0B0E06C0133E9832E31E083
:107AD000932EC114D10451F1F70184899589A689A7
:107AE000B789AC01BD01517066277727452B462B1E
:107AF000472B09F0E7C012811150AC01BD0129E00C
:107B000076956795579547952A95D1F7142309F0EF
:107B1000C4C0892B8A2B8B2B09F0B7C0848D958D1F
:107B2000F7018230910508F0B6C01182A3E9B1E0F7
:107B3000C10183599140FC01EA0FFB1FE4912D9193
:107B4000E213EEC0F2E0A331BF07A9F720E8220E4E
:107B5000311C411C511C211440E7340641045104DE
:107B600009F089CF26CE8981811104C073E0C72E28
:107B7000D12C7CCF8C8583FD13C00BA91CA99E0141
:107B80002F5F3F4FD801A801455F5F4F4A175B0742
:107B900009F455C0F90161919F019D916917B1F3F5
:107BA00009A91AA90F5F1F4F09F389AD9AADABADB3
:107BB000BCAD0097A105B105C9F298012F7033271C
:107BC000232BB1F480903702909038020196A11DCA
:107BD000B11D89AF9AAFABAFBCAF8FA998ADF4011F
:107BE000009749F4848195810817190708F0BECFE2
:107BF0001AAB09AB22CF228130E021503109A80114
:107C000064E0569547956A95E1F724233523232BA5
:107C100079F70E94CF398230910508F424CFF4011E
:107C2000268137818217930708F0A0CF98AF8FABDA
:107C30000E94CB3869AF7AAF8BAF9CAFD9CFF80138
:107C400093858071911107C009F490CF8B8D9C8D25
:107C50009EAB8DABBDCE811189CF8B8D9C8DF701F5
:107C6000958F848F8D8D9E8DAF8DB8A1808F918FD4
:107C7000A28FB38F148A158A168A178A81E08183AE
:107C8000F5CE45E0C42ED12CF1CEF701868D978D2F
:107C90000E94CF3945CF978F868FF701868D978DBC
:107CA0000E94CB38611571058105910511F4F7012A
:107CB0003CCF610F711D811D911DF70160A371A360
:107CC00082A393A3F701248935893170A12C92E016
:107CD000B92EA21AB30ACA14DB0408F45601F7013C
:107CE00040A151A162A173A18501C4010E94533931
:107CF000F701892B09F019CF84899589A689B7895D
:107D00008A0D9B1DA11DB11D848B958BA68BB78BF6
:107D10008A0C9B1CCA18DB08DCCEFC01099552CDED
:107D2000C201B1010E94873843E951E0C201B101AB
:107D30000E9495380BCF153709F01ACC8EE10E94BE
:107D4000C43885E90E94C4388FE0CECB143709F0DF
:107D5000F4CBE12CF12C7DCC883009F060CE3BE0F7
:107D600058CE84E0E82EF12CA7CBDC0101C06D9346
:107D700041505040E0F70895A1E21A2EAA1BBB1B08
:107D8000FD010DC0AA1FBB1FEE1FFF1FA217B307E7
:107D9000E407F50720F0A21BB30BE40BF50B661FFD
:107DA000771F881F991F1A9469F7609570958095C1
:107DB00090959B01AC01BD01CF010895A29FB00138
:107DC000B39FC001A39F700D811D1124911DB29F0F
:107DD000700D811D1124911D08950E94DE3EA59F06
:107DE000900DB49F900DA49F800D911D11240895B6
:107DF0002F923F924F925F926F927F928F929F92BB
:107E0000AF92BF92CF92DF92EF92FF920F931F93A8
:107E1000CF93DF93CDB7DEB7CA1BDB0B0FB6F89459
:107E2000DEBF0FBECDBF09942A88398848885F8499
:107E30006E847D848C849B84AA84B984C884DF800A
:107E4000EE80FD800C811B81AA81B981CE0FD11DEE
:107E50000FB6F894DEBF0FBECDBFED010895F894C4
:027E6000FFCF52
:0E7E62004649524D574152452E42494E0000AE
:040000030000700089
:00000001FF
