:107000000C9434380C9451380C9451380C945138F9
:107010000C9451380C9451380C9451380C945138CC
:107020000C9451380C9451380C9451380C945138BC
:107030000C9451380C9451380C9451380C945138AC
:107040000C9451380C9451380C9451380C9451389C
:107050000C9451380C9451380C9451380C9451388C
:107060000C9451380C94513811241FBECFEFD8E046
:10707000DEBFCDBF11E0A0E0B1E0E4E4FFE702C075
:1070800005900D92AE30B107D9F722E0AEE0B1E045
:1070900001C01D92A034B207E1F70E94313A0C946E
:1070A000A03F0C940038559A569A08955D9A089519
:1070B0005D9808955E9A08955E9808955E9B0C947D
:1070C0005A380C945C385D9B0C9456380C945838A4
:1070D000229A239A259A2C9A089580EA319731971B
:1070E000319700008A95D1F7089502D02A9801C0FF
:1070F0002A9A8FEF98E087FD2B9A87FF2B98880FAD
:107100001C9983952D9A2D989A95A9F70895FB01BE
:1071100083E080935700E8958091570080FDFCCF75
:1071200081E180935700E89508950F921F92FB012B
:10713000DA0190E40D901D9081E080935700E8956E
:1071400032969A95B9F7FB0185E080935700E89550
:107150008091570080FDFCCF81E180935700E89536
:107160001F900F90089581E492E4AFE0B0E0209189
:10717000C00027FF03C08091C60008950197A109B0
:10718000B109A9F78FEF08959091C00095FFFCCF4A
:107190008093C60008950F931F93E0913D02F091F4
:1071A0003E029B01AC0122503109410951098681FF
:1071B0009781A085B1850297A109B10928173907E0
:1071C0004A075B0778F4A281B0E00E944F3F028932
:1071D000138924893589600F711F821F931F1F91A6
:1071E0000F91089560E070E0CB01F9CF0F931F93EA
:1071F000CF93DF93EC01E0913D02F0913E021982C2
:1072000018826C817D818E819F816130710581053D
:10721000910519F106811781208531856017710765
:1072200082079307D0F4611571058105910521F45A
:107230006685778580899189688779878A879B8722
:107240000E94CB386C877D878E879F8780E090E097
:10725000DF91CF911F910F91089581E090E0F8CFD9
:10726000CF92DF92EF92FF92CF93C82F6A017B01FA
:1072700087FF09C040E050E0BA0187E70E9430393B
:10728000823000F5CF770E9475388C2F0E947A38B3
:107290008F2D0E947A388E2D0E947A388D2D0E9473
:1072A0007A388C2D0E947A38C03491F0C83491F429
:1072B00087E80E947A38CAE00E94793887FF02C0C6
:1072C000C150D1F7CF91FF90EF90DF90CF9008950C
:1072D00085E9EFCF81E0EDCFA0E0B0E0E2E7F9E3B0
:1072E0000C94643F6C01790180913F0283FD07C0DB
:1072F00089E0440F551F661F771F8A95D1F781E5F6
:107300000E943039882351F0C1E0D0E00E947838E3
:10731000CE01CDB7DEB7E8E00C94803FC0E4DCE9F5
:107320000E9479388F3F19F42197D1F7EDCF8E3F26
:1073300059F7C2E0D2E0C01BD10BCE19DF09E1142E
:10734000F10431F00E94793881E0E81AF108F7CFB2
:107350000E947938F60181936F0101501109C1F73C
:107360000E9479382197E1F7C0E0D0E0CFCFA0E0CC
:10737000B0E0EDEBF9E30C94643FEC016A017B01B2
:1073800002E010E02EEF31E00E946C39892BD1F43D
:107390008881998185359A4AB9F422E530E0B701B0
:1073A000A601CE010E946C39892B81F481E02881ED
:1073B00039812634314409F480E0CDB7DEB7E8E006
:1073C0000C94803F83E0F9CF82E0F7CF81E0F5CFE6
:1073D000A4E0B0E0EEEEF9E30C94643F6230710596
:1073E0008105910528F461E070E080E090E035C00F
:1073F000E0913D02F0913E02C680D780E084F184A6
:107400006C157D058E059F0570F72081233059F797
:107410009B012F773327220F331F220F331FAB011E
:10742000BC01A7E07695679557954795AA95D1F742
:10743000C284D384E484F5844C0D5D1D6E1D7F1DD4
:1074400004E010E0CE0101960E946C39892B59F6B8
:1074500069817A818B819C819F702496E8E00C94ED
:10746000803FA2E4B0E0E7E3FAE30C945A3F83E301
:107470008093C4001092C50088E18093C10086E02B
:107480008093C2005098589A00E0F12CDD24D394E8
:10749000A3E0CA2EB5E0BB2E11E1A12E0E94B338A5
:1074A000182F8033F1F08F3F09F41EC1FF2009F43B
:1074B00015C1813509F412C1813409F446C08535FE
:1074C00009F447C0863509F4BDC4823451F08534CF
:1074D00041F0853731F08F7E843631F0103509F078
:1074E0005EC0E12CF12C16C00E94B338809392014B
:1074F0000E94B338809391010E94B33891E08534A3
:1075000009F090E090939001143671F4E0909101AD
:10751000F090920170E1872E71E0972EC4018051A6
:1075200091408E159F05C8F00E94B3388032E1F774
:1075300084E10E94C438113411F580911001803823
:1075400091F482E00E94C43826C0EE24E394F12C2A
:10755000E1CFE2E0EE2EF12CDDCF0E94B338F40152
:1075600081934F01DBCF813811F481E0EBCF82387A
:1075700011F480E1E7CF883939F583E0E3CF1535A1
:1075800089F48091100190911101880F991F9093B7
:107590000F0180930E0180E10E94C43801E0FF24B6
:1075A000F3947CCF163509F037C4809110018033F5
:1075B00059F480911201811102C08EE1C3CF813054
:1075C00009F033C485E9BECF80E0BCCF143609F0A2
:1075D0002EC480919001882321F120E0822F90E039
:1075E000409191015091920184179507A0F6F99965
:1075F000FECF40910E0150910F0152BD41BD805F01
:107600009E4FFC01808180BDFA9AF99A80910E010B
:1076100090910F01019690930F0180930E012F5FBF
:10762000DDCFF999FECF20910E0130910F01F901C4
:10763000C0925700E89507B600FCFDCFA0E1B1E08D
:1076400080E090E04D915D91F901E80FF91F0A018A
:10765000D0925700E895112402968038910591F751
:10766000F901B0925700E89507B600FCFDCFA09253
:107670005700E89590CF80919001882301F1F99906
:10768000FECF80910E0190910F0192BD81BDF89ABD
:1076900080B50E94C43880910E0190910F0101962F
:1076A00090930F0180930E01FFEFEF1AFF0A809174
:1076B000910190919201E816F906E8F26CCF0091E1
:1076C0000E0110910F01F80184910E94C4380F5FE0
:1076D0001F4F10930F0100930E01E6CF84E10E942B
:1076E000C43880E10E94C438013051F480E090E059
:1076F000FC01259134912F3F3F4F11F0FC0109957A
:10770000CE01059623969FAF8EAF23973E0195E35A
:10771000690E711C10923E0210923D020E94683860
:1077200014E60E946D381150E1F71AE00E94783893
:107730001150E1F740E050E0BA0180E40E94303996
:10774000182F813009F081C04AEA51E060E070E012
:1077500088E40E943039813009F079C0FE01319609
:107760007F018F010E947938F80181938F01239660
:107770008EAD9FAD23978E179F07A1F78B81813028
:1077800009F063C08C818A3A09F05FC050E1C52ED0
:1077900057E2D52E40E050E060E070E489EE0E94B0
:1077A000303981114BC040E050E0BA018AE70E94B5
:1077B000303981114AC00E947938F70181937F01E5
:1077C0000E171F07C1F7898186FF6AC01CE010935E
:1077D0003F020E947838112309F41AC140E050E0BA
:1077E000BA01CE0101960E94B739813009F00CC16F
:1077F00000E110E02EEB31E040E050E0BA01CE01B4
:1078000001960E946C39892B09F44CC081E090E00C
:10781000892B09F400C180E090E0FC0125913491AE
:107820002F3F3F4F09F0EAC280E593EC20E931E0B9
:10783000F9013197F1F70197D9F76CCF0E946D38B4
:1078400091E0C91AD10809F0A5CF10E0C0CF40E0FF
:1078500050E0BA0189EE0E9430398230C0F412E063
:1078600009EE40E1E42E47E2F42E40E050E0BA0198
:10787000802F0E94303981110CC040E052E060E05E
:1078800070E080E50E9430398111DFCFA0CF01E4A4
:10789000E8CF0E946D38F1E0EF1AF10831F7D5CF4B
:1078A00014E095CF8D81811103C086E090E0B0CFC8
:1078B000C984DA84EB84FC84B701A601CE01019669
:1078C0000E94B739833009F4A1CF8111EECF04E2D1
:1078D00010E02DE030E0B701A601CE0101960E9434
:1078E0006C39892B09F092CF2A853B8540E050E026
:1078F000211531054105510521F4288D398D4A8D19
:107900005B8DAC81B0E00E944F3F4B015C018A81EE
:107910009B81A0E0B0E0C80ED91EEA1EFB1EC092FB
:107920001D02D0921E02E0921F02F09220022981D5
:10793000209315022D803E8030921802209217026B
:107940004F81588560E070E0411551056105710572
:1079500021F44C895D896E897F8934E036942794BF
:107960003A95E1F7412C512C481B590B6A0B7B0BC4
:10797000CB01BA01681979098A099B09621973094F
:107980008409950930E040E050E00E942D3FDA0183
:10799000C9010296A11DB11D8093190290931A028C
:1079A000A0931B02B0931C02873F9F4FA105B10516
:1079B00008F47BCF83E08093130288A199A1AAA148
:1079C000BBA18093210290932202A0932302B09343
:1079D0002402C20CD31CE41CF51C8C0C9D1CAE1C98
:1079E000BF1C8092250290922602A0922702B0929C
:1079F00028021092140283E192E090933E02809359
:107A00003D0280E090E004CFC12CD12C76015ACF0A
:107A100082E090E0FDCEE0903D02F0903E02E11465
:107A2000F10409F499C1F701118278A66FA219A691
:107A30001AA61BA61CA610E0A12E11E0B12E00E292
:107A4000502EEFA1F8A5DF01CF010B968A179B07F7
:107A5000E9F420E090E088E041E0490FD501A90F6A
:107A6000B11D9C919132A0F09F3291F09E3209F4A9
:107A7000E4C1281768F4DF01A20FB11D9C93382FD1
:107A800081E0820F282F942F832FE6CF5D92DECFE7
:107A9000A40EB11C81E0913208F080E08387CE0112
:107AA00085960E94F6386C01892BC9F42DA13EA160
:107AB0002F703327B5E0220F331FBA95E1F749A99C
:107AC0005AA96BA97CA900E210E0CE0101960E94A0
:107AD0006C39892B09F484C0CC24C394D12CC110F7
:107AE0009ACE212C312C210140E850E06FEF70E05C
:107AF00083E991E00E94263FE0903D02F0903E0233
:107B0000E114F10409F44FC0F701818180FF4BC0FB
:107B1000828D938DA48DB58D46895789608D718D29
:107B2000841B950BA60BB70B80389105A105B105F9
:107B300020F080E890E0A0E0B0E06C0133E9832E13
:107B400031E0932EC114D10471F1F7018689978930
:107B5000A08DB18DAC01BD01517066277727452BF3
:107B6000462B472B09F01FC112811150AC01BD01FA
:107B700029E076956795579547952A95D1F714236F
:107B800009F0FAC0892B8A2B8B2B09F0E9C0668D8E
:107B9000778D80A191A1F701623071058105910572
:107BA00008F0E6C01182A3E9B1E0C1018359914018
:107BB000FC01EA0FFB1FE4912D91E21322C1F2E0D8
:107BC000A331BF07A9F720E8220E311C411C511C2C
:107BD000211440E734064104510409F085CF1BCE3F
:107BE0008981811104C0F3E0CF2ED12C78CF8C8510
:107BF00083FD13C00FA118A59E012F5F3F4FD80131
:107C0000A801455F5F4F4A175B0709F463C0F9019C
:107C100061919F019D916917B1F30DA11EA10F5FA5
:107C20001F4F09F389A99AA9ABA9BCA90097A1057F
:107C3000B105C9F298012F703327232BD9F4809016
:107C40003D0290903E020196A11DB11D89AB9AABF9
:107C5000ABABBCAB6DA57EA58FA598A9F401611552
:107C600071058105910549F48481958108171907EB
:107C700008F0B9CF1EA30DA319CF228130E0A901CE
:107C8000415051099801E4E036952795EA95E1F7CE
:107C900024233523232B71F70E94E83962307105C4
:107CA0008105910508F418CFF401268137814085BC
:107CB0005185621773078407950708F094CF6DA765
:107CC0007EA78FA798AB0E94CB3869AB7AAB8BAB02
:107CD0009CABD0CFF80193858071911117C009F446
:107CE00082CF8D899E89A0E0B0E0DC0199278827AA
:107CF0002B8D3C8DA90160E070E0842B952BA62B89
:107D0000B72B89A79AA7ABA7BCA79BCE81116BCF36
:107D10008D899E89A0E0B0E0DC01992788272B8D12
:107D20003C8DA90160E070E0842B952BA62BB72B2E
:107D3000F701868F978FA0A3B1A38D8D9E8DAF8DF8
:107D4000B8A1828F938FA48FB58F168A178A108E51
:107D5000118E81E08183C3CE45E0C42ED12CBFCEED
:107D6000F70162A173A184A195A10E94E83913CF04
:107D700062A373A384A395A3F70162A173A184A155
:107D800095A10E94CB38611571058105910511F40B
:107D9000F70108CF610F711D811D911DF70166A3C9
:107DA00077A380A791A7F701268937893170A12C85
:107DB00092E0B92EA21AB30ACA14DB0408F45601E1
:107DC000F70146A157A160A571A58501C4010E94D4
:107DD0006C39F701892B09F0E5CE86899789A08D4A
:107DE000B18D8A0D9B1DA11DB11D868B978BA08F18
:107DF000B18F8A0C9B1CCA18DB08A4CEFC01099524
:107E000013CDC201B1010E94873843E951E0C2019C
:107E1000B1010E949538D7CE153709F0D7CB8EE146
:107E20000E94C43885E90E94C4388FE08BCB143798
:107E300009F0B1CBE12CF12C3ACC883009F028CEF6
:107E40003BE020CE84E0E82EF12C64CBDC0101C0C5
:107E50006D9341505040E0F70895A1E21A2EAA1BFD
:107E6000BB1BFD010DC0AA1FBB1FEE1FFF1FA217EA
:107E7000B307E407F50720F0A21BB30BE40BF50BE7
:107E8000661F771F881F991F1A9469F76095709570
:107E9000809590959B01AC01BD01CF0108950E9492
:107EA000913FA59F900DB49F900DA49F800D911DB3
:107EB000112408952F923F924F925F926F927F927A
:107EC0008F929F92AF92BF92CF92DF92EF92FF92EA
:107ED0000F931F93CF93DF93CDB7DEB7CA1BDB0B96
:107EE0000FB6F894DEBF0FBECDBF09942A8839883B
:107EF00048885F846E847D848C849B84AA84B98442
:107F0000C884DF80EE80FD800C811B81AA81B9814D
:107F1000CE0FD11D0FB6F894DEBF0FBECDBFED0161
:107F20000895A29FB001B39FC001A39F700D811D52
:107F30001124911DB29F700D811D1124911D089572
:047F4000F894FFCFE3
:0E7F44004649524D574152452E42494E0000CB
:040000030000700089
:00000001FF
